:100000000C94DF000C94F8050C9421060C944A061D
:100010000C947C060C94AE060C9407010C9407011A
:100020000C9407010C9407010C9407010C94070130
:100030000C9407010C9407010C9407010C94070120
:100040000C9407010C9407010C9407010C94070110
:100050000C9407010C946D020C9407010C94070199
:100060000C9407010C94070108000000BE9224497B
:10007000123EABAAAA2ABECDCCCC4C3E00000080DA
:10008000BEABAAAAAA3E00000000BF000000803F4D
:100090000000000000084178D3BB4387D1133D190D
:1000A0000E3CC3BD4282AD2B3E68EC8276BED98F3A
:1000B000E1A93E4C80EFFFBE01C4FF7F3F0000007E
:1000C000000000407A10F35A00A0724E1809001088
:1000D000A5D4E80000E87648170000E40B540200BD
:1000E00000CA9A3B000000E1F505000080969800E8
:1000F000000040420F000000A08601000000102711
:1001000000000000E80300000000640000000000A0
:100110000A00000000000100000000002C76D888D2
:10012000DC674F0823DFC1DFAE59E1B1B796E5E3E5
:10013000E453C63AE651997696E8E6C28426EB89FE
:100140008C9B62ED407C6FFCEFBC9C9F40F2BAA59B
:100150006FA5F490055A2AF75C936B6CF9676DC133
:100160001BFCE0E40D47FEF520E6B500D0ED902E37
:100170000300943577050080841E080000204E0A95
:10018000000000C80C333333330F986E12831141D3
:10019000EF8D2114893BE65516CFFEE6DB18D1849E
:1001A0004B381BF77C1D901DA4BBE42420328472C5
:1001B0005E228100C9F124ECA1E53D27090111244B
:1001C0001FBECFEFD8E0DEBFCDBF11E0A0E0B1E0B1
:1001D000E6E7F8E102C005900D92A831B107D9F722
:1001E00011E0A8E1B1E001C01D92A236B107E1F72C
:1001F00011E0CEEBD1E004C02297FE010E94180965
:10020000CC3BD107C9F70E941C010C94390C0C940B
:100210000000CF92EF920F9388E291E062E043E01A
:1002200024E005E056E0E52E37E0C32E0E94DE0311
:100230000F91EF90CF9008956F927F928F929F923F
:10024000AF92BF92CF92DF92EF92FF920F931F93E4
:10025000CF93DF9380E00E94620288E291E00E94E7
:10026000CD03C9E1D0E080E00E94FE01A0E0B0E053
:100270008093180190931901A0931A01B0931B0168
:1002800060901401709015018090160190901701F4
:10029000BC01CD010E94AD077B018C01C401B301FB
:1002A00020E030EC4FE754E40E9445079B01AC018D
:1002B000C801B7010E9480087B018C0160931C017A
:1002C00070931D0180931E0190931F016091100196
:1002D0007091110180911201909113010E94AD075C
:1002E0009B01AC01C801B7010E9480085B016C0151
:1002F000C401B301A80197010E94E0069B01AC0173
:10030000C601B5010E944507609324017093250141
:10031000809326019093270120E030E44CE156E4DD
:100320000E9445070E94400820E030E045E953E480
:100330000E94800820E030EC43E755E40E94E1068B
:100340009B01AC0160EC7EED8DE899E40E944507CD
:1003500023E333E948E853E40E94E0066093200178
:1003600070932101809322019093230188E291E010
:1003700061E041E00E94A70388E291E060E071E063
:100380000E94FC02409124015091250160912601B8
:100390007091270188E291E00E940F0388E291E0CA
:1003A00064E071E00E94FC0288E291E061E042E0DA
:1003B0000E94A70388E291E069E071E00E94FC02DC
:1003C00040912001509121016091220170912301FF
:1003D00088E291E00E940F0388E291E06DE071E015
:1003E0000E94FC0280E197E2FE013197F1F701974C
:1003F000D9F788E291E00E94CD0335CF20917C00AF
:1004000090917C00907F922B8F70982B90937C0022
:1004100080917A0087FD05C080917A008068809382
:100420007A0080917A0083FD0EC080917A0080640A
:1004300080937A0080917A0084FFFCCF80917A00CB
:10044000806180937A002091780030917900C90111
:100450000895282F80917A0087FD05C080917A0049
:10046000806880937A0080917C0090917C00907FDE
:10047000982B2F70922B90937C0080917A0080644F
:1004800080937A000895ECE7F0E020819081907FDE
:10049000922B8F70982B908308959C0180917A0005
:1004A000886080937A007894662339F080917A008E
:1004B000806280937A0060937B0030932F012093B9
:1004C0002E010895ECE7F0E090818295880F880F67
:1004D000807C9F70982B908308951F920F920FB687
:1004E0000F9211242F933F934F935F936F937F93BA
:1004F0008F939F93AF93BF93EF93FF93E0912E0160
:10050000F0912F01309709F00995FF91EF91BF917C
:10051000AF919F918F917F916F915F914F913F919B
:100520002F910F900FBE0F901F901895DF92EF92B2
:10053000FF920F931F93CF93DF93D62E8C01C0E0D1
:10054000D0E081E0E82EF12CC7010C2E02C0880F0C
:10055000991F0A94E2F76D2D6823F80182810E94A9
:100560009E0521960F5F1F4FC430D10569F7DF91BB
:10057000CF911F910F91FF90EF90DF900895EF9230
:10058000FF920F931F938C01F62EFC01808161E096
:100590000E949E056F2D772767FD709524E0759565
:1005A00067952A95E1F7C8010E949602F8018181BA
:1005B00061E00E949E059DE0E92E8E2D8A95F1F75F
:1005C000F801818160E00E949E05FFE0FF22C801E2
:1005D0006F2D0E949602F801818161E00E949E05C4
:1005E000EA94F1F7F801818160E00E949E051F9175
:1005F0000F91FF90EF9008950F931F93CF93DF9388
:100600008C01EB0104C0C8010E94BF0221966881E1
:100610006623C9F7DF91CF911F910F910895CF9273
:10062000DF92EF92FF920F931F93DF93CF93CDB79B
:10063000DEB72A970FB6F894DEBF0FBECDBF7C01A0
:10064000CB01BA0143E022E06E010894C11CD11C29
:1006500086010E941C09C701B6010E94FC022A966D
:100660000FB6F894DEBF0FBECDBFCF91DF911F91C3
:100670000F91FF90EF90DF90CF9008950F931F930D
:10068000DF93CF93CDB7DEB72A970FB6F894DEBFCE
:100690000FBECDBF8C01CB01BA01AE014F5F5F4FE2
:1006A0002AE030E00E947109BC01C8010E94FC02EE
:1006B0002A960FB6F894DEBF0FBECDBFCF91DF9163
:1006C0001F910F9108950F931F93DF93CF93CDB791
:1006D000DEB764970FB6F894DEBF0FBECDBF8C01B6
:1006E000CB01BA01AE014F5F5F4F2AE030E00E94BC
:1006F0003D09BC01C8010E94FC0264960FB6F89443
:10070000DEBF0FBECDBFCF91DF911F910F91089536
:10071000FF920F931F938C01F62EFC01808160E005
:100720000E949E05C8016F2D0E949602F8018181EA
:1007300061E00E949E058DE08A95F1F7F8018181C4
:1007400060E00E949E051F910F91FF9008950F9306
:100750001F93CF93DF93EC01062F413011F410E883
:1007600005C0423011F410EC01C010E0612F772772
:1007700067FD709534E0759567953A95E1F7CE0180
:100780000E9488030150102BCE01612F0E94880324
:10079000DF91CF911F910F9108950F931F938C01BB
:1007A00060E00E948803C80161E00E94880388EE2F
:1007B00093E00197F1F71F910F910895AF92BF92C7
:1007C000CF92EF92FF920F931F93DF93CF9300D0BE
:1007D00000D000D0CDB7DEB75C01FE01319686E0D7
:1007E000DF011D928A95E9F769834A832B830C8385
:1007F000ED82CE8200E010E07F01F701E00FF11FF3
:100800008081F501E00FF11F808361E00E94CB053C
:100810000F5F1F4F0630110581F7C50162E00E948E
:100820008803C50162E00E948803C50168E00E9458
:100830008803C50160E00E948803C5016CE00E9446
:100840008803C50160E00E948803C50166E00E943C
:10085000880326960FB6F894DEBF0FBECDBFCF91AA
:10086000DF911F910F91FF90EF90CF90BF90AF90CD
:100870000895AF92BF92CF92EF92FF920F931F9382
:10088000DF93CF9300D000D000D0CDB7DEB75C01AE
:10089000FE01319686E0DF011D928A95E9F76983B2
:1008A0004A832B830C83ED82CE8200E010E07F012F
:1008B000F701E00FF11F8081F501E00FF11F808348
:1008C00061E00E94CB050F5F1F4F0630110581F7D5
:1008D000C50162E00E948803C50162E00E948803AE
:1008E000C50168E00E948803C50160E00E9488039A
:1008F000C5016CE00E948803C50160E00E94880386
:10090000C50166E00E94880326960FB6F894DEBF04
:100910000FBECDBFCF91DF911F910F91FF90EF9050
:10092000CF90BF90AF900895883010F4805F089505
:100930008E3010F488500895843110F080E00895CE
:1009400086500895982F8250823020F0923111F015
:10095000933151F57894923011F0923141F48091B5
:100960006900807C842B8093690081E00BC0933008
:1009700011F0933141F4809169008370842B80934E
:10098000690082E08DBBE92FF0E0923138F4EE0F80
:10099000FF1FE45DFE4F718360830895EE0FFF1F1C
:1009A000E45FFE4F718360830895E82F873108F07C
:1009B00048C07894883098F4809168008160809372
:1009C000680020916B0081E090E00E2E02C0880F3D
:1009D000991F0A94E2F7282B20936B002BC0482F15
:1009E00050E08F30A0F480916800826080936800AE
:1009F00020916C004850504081E090E002C0880F88
:100A0000991F4A95E2F7282B20936C0013C0809120
:100A1000680084608093680020916D0040515040D0
:100A200081E090E002C0880F991F4A95E2F7282BD9
:100A300020936D00F0E0EE0FFF1FEC5CFE4F718322
:100A400060830895FC018081883080F4613029F052
:100A5000613030F0623091F506C02BE230E030C0FA
:100A60002AE230E02DC029E230E02AC08E3090F436
:100A700088508083613029F0613030F06230F1F4C9
:100A800006C025E230E01CC024E230E019C023E2B9
:100A900030E016C0843190F48E508083613029F0AC
:100AA000613030F0623051F406C028E230E008C016
:100AB00027E230E005C026E230E002C020E030E06E
:100AC000C9010895DF93CF930F92CDB7DEB7898325
:100AD000CE01019661E00E942205FC01009759F0C9
:100AE000208181E090E0098002C0880F991F0A945C
:100AF000E2F7282720830F90CF91DF910895DF93AD
:100B0000CF930F92CDB7DEB78983CE01019662E015
:100B10000E942205FC01009711F420E00AC0208108
:100B200081E090E0098002C0880F991F0A94E2F7E3
:100B30002823822F0F90CF91DF9108951F93DF9389
:100B4000CF930F92CDB7DEB78983162FCE010196D2
:100B500061E00E942205FC010097C1F03981112358
:100B600051F0208181E090E002C0880F991F3A95F2
:100B7000E2F7282B0AC0208181E090E002C0880FB4
:100B8000991F3A95E2F78095282320830F90CF9103
:100B9000DF911F9108951F93DF93CF930F92CDB7ED
:100BA000DEB78983162FCE01019660E00E942205F0
:100BB000FC010097C1F03981112351F0208181E0BF
:100BC00090E002C0880F991F3A95E2F7282B0AC0DF
:100BD000208181E090E002C0880F991F3A95E2F7EA
:100BE0008095282320830F90CF91DF911F91089546
:100BF0001F920F920FB60F9211242F933F934F9392
:100C00005F936F937F938F939F93AF93BF93EF9374
:100C1000FF93E0913001F0913101309709F009958F
:100C2000FF91EF91BF91AF919F918F917F916F91C4
:100C30005F914F913F912F910F900FBE0F901F909A
:100C400018951F920F920FB60F9211242F933F9376
:100C50004F935F936F937F938F939F93AF93BF93C4
:100C6000EF93FF93E0913201F0913301309709F057
:100C70000995FF91EF91BF91AF919F918F917F91D6
:100C80006F915F914F913F912F910F900FBE0F90F9
:100C90001F9018951F920F920FB60F9211242F9349
:100CA0003F934F935F936F937F938F939F93AF93F4
:100CB000BF93CF93DF93EF93FF93C4E3D1E0E88139
:100CC000F981309709F00995229681E0C434D8075C
:100CD000B1F7FF91EF91DF91CF91BF91AF919F91CC
:100CE0008F917F916F915F914F913F912F910F90D5
:100CF0000FBE0F901F9018951F920F920FB60F9274
:100D000011242F933F934F935F936F937F938F9310
:100D10009F93AF93BF93CF93DF93EF93FF93C4E47D
:100D2000D1E0E881F981309709F00995229681E0B8
:100D3000C235D807B1F7FF91EF91DF91CF91BF9105
:100D4000AF919F918F917F916F915F914F913F9163
:100D50002F910F900FBE0F901F9018951F920F921A
:100D60000FB60F9211242F933F934F935F936F937E
:100D70007F938F939F93AF93BF93CF93DF93EF9323
:100D8000FF93C2E5D1E0E881F981309709F0099538
:100D9000229681E0C236D807B1F7FF91EF91DF913B
:100DA000CF91BF91AF919F918F917F916F915F9103
:100DB0004F913F912F910F900FBE0F901F9018955C
:100DC0005058BB27AA270ED01CC10DD130F012D12C
:100DD00020F031F49F3F11F41EF402C10EF4E095AF
:100DE000E7FBF8C0E92F1ED180F3BA17620773073B
:100DF0008407950718F071F49EF536C10EF4E0955E
:100E00000B2EBA2FA02D0B01B90190010C01CA01C4
:100E1000A0011124FF27591B99F0593F50F4503E6F
:100E200068F11A16F040A22F232F342F4427585F61
:100E3000F3CF469537952795A795F0405395C9F779
:100E40007EF41F16BA0B620B730B840BBAF0915031
:100E5000A1F0FF0FBB1F661F771F881FC2F70EC0D0
:100E6000BA0F621F731F841F48F4879577956795A3
:100E7000B795F7959E3F08F0B3CF9395880F08F08C
:100E80009927EE0F9795879508950CD0BAC0B2D0E8
:100E900040F0A9D030F021F45F3F19F09BC0511110
:100EA000E4C09EC0BFD098F39923C9F35523B1F392
:100EB000951B550BBB27AA2762177307840738F0C9
:100EC0009F5F5F4F220F331F441FAA1FA9F333D028
:100ED0000E2E3AF0E0E830D091505040E695001CDC
:100EE000CAF729D0FE2F27D0660F771F881FBB1F98
:100EF000261737074807AB07B0E809F0BB0B802D72
:100F0000BF01FF2793585F4F2AF09E3F510568F0BD
:100F100061C0ABC05F3FECF3983EDCF386957795FC
:100F20006795B795F7959F5FC9F7880F911D9695BF
:100F3000879597F90895E1E0660F771F881FBB1F1B
:100F4000621773078407BA0720F0621B730B840BC8
:100F5000BA0BEE1F88F7E0950895E89409C097FB57
:100F60003EF490958095709561957F4F8F4F9F4F80
:100F70009923A9F0F92F96E9BB279395F6958795C4
:100F800077956795B795F111F8CFFAF4BB0F11F487
:100F900060FF1BC06F5F7F4F8F4F9F4F16C088232E
:100FA00011F096E911C0772321F09EE8872F762F64
:100FB00005C0662371F096E8862F70E060E02AF0A5
:100FC0009A95660F771F881FDAF7880F9695879591
:100FD00097F9089597F99F6780E870E060E00895B9
:100FE0009FEF80EC089500240A9416161706180641
:100FF0000906089500240A9412161306140605061D
:101000000895092E0394000C11F4882352F0BB0FAD
:1010100040F4BF2B11F460FF04C06F5F7F4F8F4F10
:101020009F4F089557FD9058440F551F59F05F3F4B
:1010300071F04795880F97FB991F61F09F3F79F0FA
:1010400087950895121613061406551FF2CF46957C
:10105000F1DF08C0161617061806991FF1CF8695FE
:101060007105610508940895E894BB2766277727E2
:10107000CB0197F908950EF0A6C0B2CF6894AACF1D
:10108000D9DFC8F39923D1F3C6F3DF93CF931F932E
:101090000F93FF92C92FDD2788232AF02197660F2F
:1010A000771F881FDAF720E030E040E85FEB9FE32E
:1010B000883920F0803E30F021968F7782DEE8E696
:1010C000F0E003C07EDEE5E9F0E08BD08B01BE01ED
:1010D000EC01FB2E6F5771097595771F880B990BE3
:1010E0003EDF28E132E741E35FE316D0AF2D980100
:1010F000AE01FF900F911F91CF91DF9173DE81CFF1
:101100000BD07FCF70DF28F075DF18F0952309F042
:1011100061CF66CF1124A9CF85DFA0F3959FD1F3CE
:10112000950F50E0551F629FF001729FBB27F00D95
:10113000B11D639FAA27F00DB11DAA1F649F6627EA
:10114000B00DA11D661F829F2227B00DA11D621F39
:10115000739FB00DA11D621F839FA00D611D221FF3
:10116000749F3327A00D611D231F849F600D211DD7
:10117000822F762F6A2F11249F5750408AF0E1F07A
:1011800088234AF0EE0FFF1FBB1F661F771F881FC3
:1011900091505040A9F79E3F510570F01BCF65CF8D
:1011A0005F3FECF3983EDCF3869577956795B795AE
:1011B000F795E7959F5FC1F7FE2B880F911D9695D8
:1011C000879597F908959F3F31F0915020F48795C6
:1011D00077956795B795880F911D9695879597F99F
:1011E0000895DF93CF931F930F93FF92EF92DF92B7
:1011F0007B018C01689405C0DA2EEF018DDFFE01C2
:10120000E894A5912591359145915591AEF3EF0163
:10121000E9DDFE019701A801DA9479F7DF90EF90FC
:10122000FF900F911F91CF91DF910895EE0FFF1F57
:101230000590F491E02D0994EF92FF920F931F9384
:10124000F22FF02E47FD02C0E4E001C0E4E1242FBC
:10125000332727FD309537FF03C0309521953F4F49
:101260004F2D512F0F2FEE2E0E9496098F2D912F6B
:101270001F910F91FF90EF900895FA01CF93FF9384
:10128000EF93223044F1253234F5C22FE894CA306E
:1012900049F497FB3EF490958095709561957F4F4A
:1012A0008F4F9F4F2C2F332744275527FF93EF93C2
:1012B0000E94E00BEF91FF91605D6A330CF0695D75
:1012C0006193B901CA01605070408040904051F76D
:1012D00016F4CDE2C19310828F919F91CF910C941F
:1012E000D00BFA01CF93FF93EF932230CCF025324D
:1012F000BCF4C22F2C2F332744275527FF93EF939D
:101300000E94E00BEF91FF91605D6A330CF0695D24
:101310006193B901CA01605070408040904051F71C
:1013200010828F919F91CF910C94D00BA9E0B0E0E7
:10133000ECE9F9E00C94060C6A01122FA02EBE2CE9
:101340002BE3201718F42CE3922E02C0902E9394D6
:10135000AE014F5F5F4F27E0092D0E94F80ABC01E4
:101360008981E82EFF24C70189709070019711F4DC
:10137000ADE209C0B1FE02C0ABE205C0B0FC02C0E4
:10138000A0E001C0A0E2E3FE3BC0AA2311F423E0E9
:1013900001C024E0211710F020E002C0121B212F11
:1013A000EB2CB4FE02C0322F0AC0F601322F80E2CD
:1013B00002C0819331503323E1F7C20ED11CAA231E
:1013C00019F0F601A1936F01F6013196E2FE05C016
:1013D0009EE4D6019C9381E404C09EE6D6019C93D2
:1013E00081E611968C9391833296DF01832F90E2F0
:1013F00002C09D9381508823E1F7E30FF11D40C0A7
:10140000E2FE42C0AA2311F423E001C024E0211728
:1014100010F020E002C0121B212FEB2CB4FE02C002
:10142000922F0AC0F601922F80E202C08193915060
:101430009923E1F7C20ED11CAA2319F0F601A1935A
:101440006F01F6013196E2FE08C089E4D6018C9363
:101450008EE411968C9386E407C089E6D6018C93BE
:101460008EE611968C9386E681833296DF01892F72
:1014700020E202C02D9381508823E1F7E90FF11D8E
:1014800010822EEF3FEFAFC0161617061CF041E09A
:1014900050E003C0AB014F5F5F4FAA2019F480E01A
:1014A00090E003C08A2D90E0019620E030E0AA236E
:1014B00011F021E030E0240F351F280F391F812F54
:1014C00090E02817390714F020E002C0121B212FEA
:1014D0004B2D50E0CA0180719070B4FC0DC0B3FC7C
:1014E0000BC0F601322F40E202C04193315033234A
:1014F000E1F7C20ED11C01C0322FAA2319F0F60168
:10150000A1936F01892B11F0132F0AC0F601132F3D
:1015100080E302C0819311501123E1F7C30ED11C67
:10152000092D060FBA8090E1892E912C8E209F20E4
:10153000E4FE04C0F1E3BF1609F40150101614F0E4
:1015400001E003C0093008F008E09B0177FF02C00A
:1015500020E030E0CB010196821B930BFE01319617
:10156000E80FF91F8EE2F82E3B01601A71088A2DF0
:1015700090E044275527481B590B8FEF2F3F380722
:1015800019F4D601FD926D01621773072CF06216F3
:10159000730614F4808101C080E3215030403196FD
:1015A0002417350724F0D6018D936D01E6CF261759
:1015B000370749F4B5E3BB1528F0BB1621F48114B5
:1015C000910409F481E3F6018193D601812F90E221
:1015D00002C09C93815011968823D9F7E10FF11D29
:1015E000108220E030E0C9012996EEE00C94220C34
:1015F000283008F027E03327DA01990F311D87FDE5
:10160000916000966105710539F432602E5F3D935B
:1016100030E32A95E1F708959F3F30F08038710557
:10162000610509F03C5F3C5F3D93913008F08068B4
:10163000911DDF93CF931F930F93FF92EF92192F7A
:10164000987F9695E92F96959695E90FFF27E45E8A
:10165000FE4F99273327EE24FF24A701E7010590C9
:101660000894079428F4360FE71EF81E491F511DF1
:10167000660F771F881F991F0694A1F7059007949E
:1016800028F4E70EF81E491F561FC11D770F881F4B
:10169000991F661F0694A1F70590079428F4F80E89
:1016A000491F561FC71FD11D880F991F661F771F1F
:1016B0000694A1F70590079420F4490F561FC71F01
:1016C000D81F990F661F771F881F0694A9F784916A
:1016D0001095177041F0D695C79557954795F79493
:1016E000E7941A95C1F7E2ECF0E068941590159133
:1016F00035916591959105907FE27395E118F10A16
:10170000430B560BC90BD009C0F7E10CF11E431F68
:10171000561FC91FD01D7EF4703311F48A95E6CF91
:10172000E894015030F0080F0AF40027021708F47B
:10173000202F2395022F7A3328F079E37D932A9581
:10174000E9F710C07D932A9589F6069497956795D9
:10175000379517951794E118F10A430B560BC90BEF
:10176000D00998F023957E9173957A3308F070E351
:101770007C932013B8F77E9170617D9330F0839550
:1017800071E37D9370E32A95E1F71124EF90FF90C8
:101790000F911F91CF91DF91992787FD9095089523
:1017A000DC01FC01672F71917723E1F7329704C0C8
:1017B0007C916D9370836291AE17BF07C8F3089553
:1017C000A1E21A2EAA1BBB1BFD010DC0AA1FBB1F45
:1017D000EE1FFF1FA217B307E407F50720F0A21BB7
:1017E000B30BE40BF50B661F771F881F991F1A9424
:1017F00069F760957095809590959B01AC01BD014E
:10180000CF0108952F923F924F925F926F927F92F5
:101810008F929F92AF92BF92CF92DF92EF92FF9200
:101820000F931F93CF93DF93CDB7DEB7CA1BDB0BAC
:101830000FB6F894DEBF0FBECDBF09942A88398851
:1018400048885F846E847D848C849B84AA84B98458
:10185000C884DF80EE80FD800C811B81AA81B98164
:10186000CE0FD11D0FB6F894DEBF0FBECDBFED0178
:061870000895F894FFCF7B
:10187600523A2000204F686D00543A200020430061
:08188600102700000000A04043
:00000001FF
